{
  "contractName": "FiatTokenV1",
  "abi": [
    {
      "anonymous": false,
      "inputs": [
        {
          "indexed": true,
          "internalType": "address",
          "name": "owner",
          "type": "address"
        },
        {
          "indexed": true,
          "internalType": "address",
          "name": "spender",
          "type": "address"
        },
        {
          "indexed": false,
          "internalType": "uint256",
          "name": "value",
          "type": "uint256"
        }
      ],
      "name": "Approval",
      "type": "event"
    },
    {
      "anonymous": false,
      "inputs": [
        {
          "indexed": true,
          "internalType": "address",
          "name": "_account",
          "type": "address"
        }
      ],
      "name": "Blacklisted",
      "type": "event"
    },
    {
      "anonymous": false,
      "inputs": [
        {
          "indexed": true,
          "internalType": "address",
          "name": "newBlacklister",
          "type": "address"
        }
      ],
      "name": "BlacklisterChanged",
      "type": "event"
    },
    {
      "anonymous": false,
      "inputs": [
        {
          "indexed": true,
          "internalType": "address",
          "name": "burner",
          "type": "address"
        },
        {
          "indexed": false,
          "internalType": "uint256",
          "name": "amount",
          "type": "uint256"
        }
      ],
      "name": "Burn",
      "type": "event"
    },
    {
      "anonymous": false,
      "inputs": [
        {
          "indexed": true,
          "internalType": "address",
          "name": "newMasterMinter",
          "type": "address"
        }
      ],
      "name": "MasterMinterChanged",
      "type": "event"
    },
    {
      "anonymous": false,
      "inputs": [
        {
          "indexed": true,
          "internalType": "address",
          "name": "minter",
          "type": "address"
        },
        {
          "indexed": true,
          "internalType": "address",
          "name": "to",
          "type": "address"
        },
        {
          "indexed": false,
          "internalType": "uint256",
          "name": "amount",
          "type": "uint256"
        }
      ],
      "name": "Mint",
      "type": "event"
    },
    {
      "anonymous": false,
      "inputs": [
        {
          "indexed": true,
          "internalType": "address",
          "name": "minter",
          "type": "address"
        },
        {
          "indexed": false,
          "internalType": "uint256",
          "name": "minterAllowedAmount",
          "type": "uint256"
        }
      ],
      "name": "MinterConfigured",
      "type": "event"
    },
    {
      "anonymous": false,
      "inputs": [
        {
          "indexed": true,
          "internalType": "address",
          "name": "oldMinter",
          "type": "address"
        }
      ],
      "name": "MinterRemoved",
      "type": "event"
    },
    {
      "anonymous": false,
      "inputs": [
        {
          "indexed": false,
          "internalType": "address",
          "name": "previousOwner",
          "type": "address"
        },
        {
          "indexed": false,
          "internalType": "address",
          "name": "newOwner",
          "type": "address"
        }
      ],
      "name": "OwnershipTransferred",
      "type": "event"
    },
    {
      "anonymous": false,
      "inputs": [],
      "name": "Pause",
      "type": "event"
    },
    {
      "anonymous": false,
      "inputs": [
        {
          "indexed": true,
          "internalType": "address",
          "name": "newAddress",
          "type": "address"
        }
      ],
      "name": "PauserChanged",
      "type": "event"
    },
    {
      "anonymous": false,
      "inputs": [
        {
          "indexed": true,
          "internalType": "address",
          "name": "from",
          "type": "address"
        },
        {
          "indexed": true,
          "internalType": "address",
          "name": "to",
          "type": "address"
        },
        {
          "indexed": false,
          "internalType": "uint256",
          "name": "value",
          "type": "uint256"
        }
      ],
      "name": "Transfer",
      "type": "event"
    },
    {
      "anonymous": false,
      "inputs": [
        {
          "indexed": true,
          "internalType": "address",
          "name": "_account",
          "type": "address"
        }
      ],
      "name": "UnBlacklisted",
      "type": "event"
    },
    {
      "anonymous": false,
      "inputs": [],
      "name": "Unpause",
      "type": "event"
    },
    {
      "inputs": [
        {
          "internalType": "address",
          "name": "_account",
          "type": "address"
        }
      ],
      "name": "blacklist",
      "outputs": [],
      "stateMutability": "nonpayable",
      "type": "function"
    },
    {
      "inputs": [],
      "name": "blacklister",
      "outputs": [
        {
          "internalType": "address",
          "name": "",
          "type": "address"
        }
      ],
      "stateMutability": "view",
      "type": "function",
      "constant": true
    },
    {
      "inputs": [],
      "name": "currency",
      "outputs": [
        {
          "internalType": "string",
          "name": "",
          "type": "string"
        }
      ],
      "stateMutability": "view",
      "type": "function",
      "constant": true
    },
    {
      "inputs": [],
      "name": "decimals",
      "outputs": [
        {
          "internalType": "uint8",
          "name": "",
          "type": "uint8"
        }
      ],
      "stateMutability": "view",
      "type": "function",
      "constant": true
    },
    {
      "inputs": [
        {
          "internalType": "address",
          "name": "_account",
          "type": "address"
        }
      ],
      "name": "isBlacklisted",
      "outputs": [
        {
          "internalType": "bool",
          "name": "",
          "type": "bool"
        }
      ],
      "stateMutability": "view",
      "type": "function",
      "constant": true
    },
    {
      "inputs": [],
      "name": "masterMinter",
      "outputs": [
        {
          "internalType": "address",
          "name": "",
          "type": "address"
        }
      ],
      "stateMutability": "view",
      "type": "function",
      "constant": true
    },
    {
      "inputs": [],
      "name": "name",
      "outputs": [
        {
          "internalType": "string",
          "name": "",
          "type": "string"
        }
      ],
      "stateMutability": "view",
      "type": "function",
      "constant": true
    },
    {
      "inputs": [],
      "name": "owner",
      "outputs": [
        {
          "internalType": "address",
          "name": "",
          "type": "address"
        }
      ],
      "stateMutability": "view",
      "type": "function",
      "constant": true
    },
    {
      "inputs": [],
      "name": "pause",
      "outputs": [],
      "stateMutability": "nonpayable",
      "type": "function"
    },
    {
      "inputs": [],
      "name": "paused",
      "outputs": [
        {
          "internalType": "bool",
          "name": "",
          "type": "bool"
        }
      ],
      "stateMutability": "view",
      "type": "function",
      "constant": true
    },
    {
      "inputs": [],
      "name": "pauser",
      "outputs": [
        {
          "internalType": "address",
          "name": "",
          "type": "address"
        }
      ],
      "stateMutability": "view",
      "type": "function",
      "constant": true
    },
    {
      "inputs": [],
      "name": "symbol",
      "outputs": [
        {
          "internalType": "string",
          "name": "",
          "type": "string"
        }
      ],
      "stateMutability": "view",
      "type": "function",
      "constant": true
    },
    {
      "inputs": [
        {
          "internalType": "address",
          "name": "newOwner",
          "type": "address"
        }
      ],
      "name": "transferOwnership",
      "outputs": [],
      "stateMutability": "nonpayable",
      "type": "function"
    },
    {
      "inputs": [
        {
          "internalType": "address",
          "name": "_account",
          "type": "address"
        }
      ],
      "name": "unBlacklist",
      "outputs": [],
      "stateMutability": "nonpayable",
      "type": "function"
    },
    {
      "inputs": [],
      "name": "unpause",
      "outputs": [],
      "stateMutability": "nonpayable",
      "type": "function"
    },
    {
      "inputs": [
        {
          "internalType": "address",
          "name": "_newBlacklister",
          "type": "address"
        }
      ],
      "name": "updateBlacklister",
      "outputs": [],
      "stateMutability": "nonpayable",
      "type": "function"
    },
    {
      "inputs": [
        {
          "internalType": "address",
          "name": "_newPauser",
          "type": "address"
        }
      ],
      "name": "updatePauser",
      "outputs": [],
      "stateMutability": "nonpayable",
      "type": "function"
    },
    {
      "inputs": [
        {
          "internalType": "string",
          "name": "tokenName",
          "type": "string"
        },
        {
          "internalType": "string",
          "name": "tokenSymbol",
          "type": "string"
        },
        {
          "internalType": "string",
          "name": "tokenCurrency",
          "type": "string"
        },
        {
          "internalType": "uint8",
          "name": "tokenDecimals",
          "type": "uint8"
        },
        {
          "internalType": "address",
          "name": "newMasterMinter",
          "type": "address"
        },
        {
          "internalType": "address",
          "name": "newPauser",
          "type": "address"
        },
        {
          "internalType": "address",
          "name": "newBlacklister",
          "type": "address"
        },
        {
          "internalType": "address",
          "name": "newOwner",
          "type": "address"
        }
      ],
      "name": "initialize",
      "outputs": [],
      "stateMutability": "nonpayable",
      "type": "function"
    },
    {
      "inputs": [
        {
          "internalType": "address",
          "name": "_to",
          "type": "address"
        },
        {
          "internalType": "uint256",
          "name": "_amount",
          "type": "uint256"
        }
      ],
      "name": "mint",
      "outputs": [
        {
          "internalType": "bool",
          "name": "",
          "type": "bool"
        }
      ],
      "stateMutability": "nonpayable",
      "type": "function"
    },
    {
      "inputs": [
        {
          "internalType": "address",
          "name": "minter",
          "type": "address"
        }
      ],
      "name": "minterAllowance",
      "outputs": [
        {
          "internalType": "uint256",
          "name": "",
          "type": "uint256"
        }
      ],
      "stateMutability": "view",
      "type": "function",
      "constant": true
    },
    {
      "inputs": [
        {
          "internalType": "address",
          "name": "account",
          "type": "address"
        }
      ],
      "name": "isMinter",
      "outputs": [
        {
          "internalType": "bool",
          "name": "",
          "type": "bool"
        }
      ],
      "stateMutability": "view",
      "type": "function",
      "constant": true
    },
    {
      "inputs": [
        {
          "internalType": "address",
          "name": "owner",
          "type": "address"
        },
        {
          "internalType": "address",
          "name": "spender",
          "type": "address"
        }
      ],
      "name": "allowance",
      "outputs": [
        {
          "internalType": "uint256",
          "name": "",
          "type": "uint256"
        }
      ],
      "stateMutability": "view",
      "type": "function",
      "constant": true
    },
    {
      "inputs": [],
      "name": "totalSupply",
      "outputs": [
        {
          "internalType": "uint256",
          "name": "",
          "type": "uint256"
        }
      ],
      "stateMutability": "view",
      "type": "function",
      "constant": true
    },
    {
      "inputs": [
        {
          "internalType": "address",
          "name": "account",
          "type": "address"
        }
      ],
      "name": "balanceOf",
      "outputs": [
        {
          "internalType": "uint256",
          "name": "",
          "type": "uint256"
        }
      ],
      "stateMutability": "view",
      "type": "function",
      "constant": true
    },
    {
      "inputs": [
        {
          "internalType": "address",
          "name": "spender",
          "type": "address"
        },
        {
          "internalType": "uint256",
          "name": "value",
          "type": "uint256"
        }
      ],
      "name": "approve",
      "outputs": [
        {
          "internalType": "bool",
          "name": "",
          "type": "bool"
        }
      ],
      "stateMutability": "nonpayable",
      "type": "function"
    },
    {
      "inputs": [
        {
          "internalType": "address",
          "name": "from",
          "type": "address"
        },
        {
          "internalType": "address",
          "name": "to",
          "type": "address"
        },
        {
          "internalType": "uint256",
          "name": "value",
          "type": "uint256"
        }
      ],
      "name": "transferFrom",
      "outputs": [
        {
          "internalType": "bool",
          "name": "",
          "type": "bool"
        }
      ],
      "stateMutability": "nonpayable",
      "type": "function"
    },
    {
      "inputs": [
        {
          "internalType": "address",
          "name": "to",
          "type": "address"
        },
        {
          "internalType": "uint256",
          "name": "value",
          "type": "uint256"
        }
      ],
      "name": "transfer",
      "outputs": [
        {
          "internalType": "bool",
          "name": "",
          "type": "bool"
        }
      ],
      "stateMutability": "nonpayable",
      "type": "function"
    },
    {
      "inputs": [
        {
          "internalType": "address",
          "name": "minter",
          "type": "address"
        },
        {
          "internalType": "uint256",
          "name": "minterAllowedAmount",
          "type": "uint256"
        }
      ],
      "name": "configureMinter",
      "outputs": [
        {
          "internalType": "bool",
          "name": "",
          "type": "bool"
        }
      ],
      "stateMutability": "nonpayable",
      "type": "function"
    },
    {
      "inputs": [
        {
          "internalType": "address",
          "name": "minter",
          "type": "address"
        }
      ],
      "name": "removeMinter",
      "outputs": [
        {
          "internalType": "bool",
          "name": "",
          "type": "bool"
        }
      ],
      "stateMutability": "nonpayable",
      "type": "function"
    },
    {
      "inputs": [
        {
          "internalType": "uint256",
          "name": "_amount",
          "type": "uint256"
        }
      ],
      "name": "burn",
      "outputs": [],
      "stateMutability": "nonpayable",
      "type": "function"
    },
    {
      "inputs": [
        {
          "internalType": "address",
          "name": "_newMasterMinter",
          "type": "address"
        }
      ],
      "name": "updateMasterMinter",
      "outputs": [],
      "stateMutability": "nonpayable",
      "type": "function"
    }
  ],
  "bytecode": "0x60806040526001805460ff60a01b191690556000600b5534801561002257600080fd5b5061002c33610031565b610053565b600080546001600160a01b0319166001600160a01b0392909216919091179055565b612fab80620000636000396000f3fe608060405234801561001057600080fd5b50600436106101e55760003560e01c806370a082311161010f578063aa271e1a116100a2578063e5a6b10f11610071578063e5a6b10f14610821578063f2fde38b14610829578063f9f92be41461085c578063fe575a871461088f576101e5565b8063aa271e1a14610778578063ad38bf22146107ab578063bd102430146107de578063dd62ed3e146107e6576101e5565b806395d89b41116100de57806395d89b41146106fc5780639fd0506d14610704578063a9059cbb1461070c578063aa20e1e414610745576101e5565b806370a08231146106865780638456cb59146106b95780638a6db9c3146106c15780638da5cb5b146106f4576101e5565b80633357162b1161018757806342966c681161015657806342966c68146105f55780634e44d95614610612578063554bab3c1461064b5780635c975abb1461067e576101e5565b80633357162b1461039757806335d99f35146105835780633f4ba83a146105b457806340c10f19146105bc576101e5565b80631a895266116101c35780631a895266146102ce57806323b872dd146103035780633092afd514610346578063313ce56714610379576101e5565b806306fdde03146101ea578063095ea7b31461026757806318160ddd146102b4575b600080fd5b6101f26108c2565b6040805160208082528351818301528351919283929083019185019080838360005b8381101561022c578181015183820152602001610214565b50505050905090810190601f1680156102595780820380516001836020036101000a031916815260200191505b509250505060405180910390f35b6102a06004803603604081101561027d57600080fd5b5073ffffffffffffffffffffffffffffffffffffffff813516906020013561096e565b604080519115158252519081900360200190f35b6102bc610ad1565b60408051918252519081900360200190f35b610301600480360360208110156102e457600080fd5b503573ffffffffffffffffffffffffffffffffffffffff16610ad7565b005b6102a06004803603606081101561031957600080fd5b5073ffffffffffffffffffffffffffffffffffffffff813581169160208101359091169060400135610b94565b6102a06004803603602081101561035c57600080fd5b503573ffffffffffffffffffffffffffffffffffffffff16610e4f565b610381610f48565b6040805160ff9092168252519081900360200190f35b61030160048036036101008110156103ae57600080fd5b8101906020810181356401000000008111156103c957600080fd5b8201836020820111156103db57600080fd5b803590602001918460018302840111640100000000831117156103fd57600080fd5b91908080601f016020809104026020016040519081016040528093929190818152602001838380828437600092019190915250929594936020810193503591505064010000000081111561045057600080fd5b82018360208201111561046257600080fd5b8035906020019184600183028401116401000000008311171561048457600080fd5b91908080601f01602080910402602001604051908101604052809392919081815260200183838082843760009201919091525092959493602081019350359150506401000000008111156104d757600080fd5b8201836020820111156104e957600080fd5b8035906020019184600183028401116401000000008311171561050b57600080fd5b91908080601f0160208091040260200160405190810160405280939291908181526020018383808284376000920191909152509295505050813560ff16925050602081013573ffffffffffffffffffffffffffffffffffffffff90811691604081013582169160608201358116916080013516610f51565b61058b611293565b6040805173ffffffffffffffffffffffffffffffffffffffff9092168252519081900360200190f35b6103016112af565b6102a0600480360360408110156105d257600080fd5b5073ffffffffffffffffffffffffffffffffffffffff8135169060200135611372565b6103016004803603602081101561060b57600080fd5b5035611743565b6102a06004803603604081101561062857600080fd5b5073ffffffffffffffffffffffffffffffffffffffff81351690602001356119e5565b6103016004803603602081101561066157600080fd5b503573ffffffffffffffffffffffffffffffffffffffff16611b78565b6102a0611cdf565b6102bc6004803603602081101561069c57600080fd5b503573ffffffffffffffffffffffffffffffffffffffff16611d00565b610301611d11565b6102bc600480360360208110156106d757600080fd5b503573ffffffffffffffffffffffffffffffffffffffff16611deb565b61058b611e13565b6101f2611e2f565b61058b611ea8565b6102a06004803603604081101561072257600080fd5b5073ffffffffffffffffffffffffffffffffffffffff8135169060200135611ec4565b6103016004803603602081101561075b57600080fd5b503573ffffffffffffffffffffffffffffffffffffffff1661201c565b6102a06004803603602081101561078e57600080fd5b503573ffffffffffffffffffffffffffffffffffffffff16612183565b610301600480360360208110156107c157600080fd5b503573ffffffffffffffffffffffffffffffffffffffff166121ae565b61058b612315565b6102bc600480360360408110156107fc57600080fd5b5073ffffffffffffffffffffffffffffffffffffffff81358116916020013516612331565b6101f2612369565b6103016004803603602081101561083f57600080fd5b503573ffffffffffffffffffffffffffffffffffffffff166123e2565b6103016004803603602081101561087257600080fd5b503573ffffffffffffffffffffffffffffffffffffffff16612535565b6102a0600480360360208110156108a557600080fd5b503573ffffffffffffffffffffffffffffffffffffffff166125f2565b6004805460408051602060026001851615610100027fffffffffffffffffffffffffffffffffffffffffffffffffffffffffffffffff0190941693909304601f810184900484028201840190925281815292918301828280156109665780601f1061093b57610100808354040283529160200191610966565b820191906000526020600020905b81548152906001019060200180831161094957829003601f168201915b505050505081565b60015460009074010000000000000000000000000000000000000000900460ff16156109fb57604080517f08c379a000000000000000000000000000000000000000000000000000000000815260206004820152601060248201527f5061757361626c653a2070617573656400000000000000000000000000000000604482015290519081900360640190fd5b33610a05816125f9565b15610a5b576040517f08c379a0000000000000000000000000000000000000000000000000000000008152600401808060200182810382526025815260200180612f516025913960400191505060405180910390fd5b83610a65816125f9565b15610abb576040517f08c379a0000000000000000000000000000000000000000000000000000000008152600401808060200182810382526025815260200180612f516025913960400191505060405180910390fd5b610ac6338686612624565b506001949350505050565b600b5490565b60025473ffffffffffffffffffffffffffffffffffffffff163314610b47576040517f08c379a000000000000000000000000000000000000000000000000000000000815260040180806020018281038252602c815260200180612d3c602c913960400191505060405180910390fd5b610b508161276b565b60405173ffffffffffffffffffffffffffffffffffffffff8216907f117e3210bb9aa7d9baff172026820255c6f6c30ba8999d1c2fd88e2848137c4e90600090a250565b60015460009074010000000000000000000000000000000000000000900460ff1615610c2157604080517f08c379a000000000000000000000000000000000000000000000000000000000815260206004820152601060248201527f5061757361626c653a2070617573656400000000000000000000000000000000604482015290519081900360640190fd5b33610c2b816125f9565b15610c81576040517f08c379a0000000000000000000000000000000000000000000000000000000008152600401808060200182810382526025815260200180612f516025913960400191505060405180910390fd5b84610c8b816125f9565b15610ce1576040517f08c379a0000000000000000000000000000000000000000000000000000000008152600401808060200182810382526025815260200180612f516025913960400191505060405180910390fd5b84610ceb816125f9565b15610d41576040517f08c379a0000000000000000000000000000000000000000000000000000000008152600401808060200182810382526025815260200180612f516025913960400191505060405180910390fd5b73ffffffffffffffffffffffffffffffffffffffff87166000908152600a60209081526040808320338452909152902054851115610dca576040517f08c379a0000000000000000000000000000000000000000000000000000000008152600401808060200182810382526028815260200180612dde6028913960400191505060405180910390fd5b610dd5878787612776565b73ffffffffffffffffffffffffffffffffffffffff87166000908152600a60209081526040808320338452909152902054610e109086612941565b73ffffffffffffffffffffffffffffffffffffffff88166000908152600a60209081526040808320338452909152902055600193505050509392505050565b60085460009073ffffffffffffffffffffffffffffffffffffffff163314610ec2576040517f08c379a0000000000000000000000000000000000000000000000000000000008152600401808060200182810382526029815260200180612d136029913960400191505060405180910390fd5b73ffffffffffffffffffffffffffffffffffffffff82166000818152600c6020908152604080832080547fffffffffffffffffffffffffffffffffffffffffffffffffffffffffffffff00169055600d909152808220829055517fe94479a9f7e1952cc78f2d6baab678adc1b772d936c6583def489e524cb666929190a2506001919050565b60065460ff1681565b60085474010000000000000000000000000000000000000000900460ff1615610fc5576040517f08c379a000000000000000000000000000000000000000000000000000000000815260040180806020018281038252602a815260200180612e34602a913960400191505060405180910390fd5b73ffffffffffffffffffffffffffffffffffffffff8416611031576040517f08c379a000000000000000000000000000000000000000000000000000000000815260040180806020018281038252602f815260200180612daf602f913960400191505060405180910390fd5b73ffffffffffffffffffffffffffffffffffffffff831661109d576040517f08c379a0000000000000000000000000000000000000000000000000000000008152600401808060200182810382526029815260200180612c9b6029913960400191505060405180910390fd5b73ffffffffffffffffffffffffffffffffffffffff8216611109576040517f08c379a000000000000000000000000000000000000000000000000000000000815260040180806020018281038252602e815260200180612e06602e913960400191505060405180910390fd5b73ffffffffffffffffffffffffffffffffffffffff8116611175576040517f08c379a0000000000000000000000000000000000000000000000000000000008152600401808060200182810382526028815260200180612ef76028913960400191505060405180910390fd5b87516111889060049060208b0190612b28565b50865161119c9060059060208a0190612b28565b5085516111b0906007906020890190612b28565b50600680547fffffffffffffffffffffffffffffffffffffffffffffffffffffffffffffff001660ff8716179055600880547fffffffffffffffffffffffff000000000000000000000000000000000000000090811673ffffffffffffffffffffffffffffffffffffffff878116919091179092556001805482168684161790556002805490911691841691909117905561124a816129b8565b5050600880547fffffffffffffffffffffff00ffffffffffffffffffffffffffffffffffffffff1674010000000000000000000000000000000000000000179055505050505050565b60085473ffffffffffffffffffffffffffffffffffffffff1681565b60015473ffffffffffffffffffffffffffffffffffffffff16331461131f576040517f08c379a0000000000000000000000000000000000000000000000000000000008152600401808060200182810382526022815260200180612ed56022913960400191505060405180910390fd5b600180547fffffffffffffffffffffff00ffffffffffffffffffffffffffffffffffffffff1690556040517f7805862f689e2f13df9f062ff482ad3ad112aca9e0847911ed832e158c525b3390600090a1565b60015460009074010000000000000000000000000000000000000000900460ff16156113ff57604080517f08c379a000000000000000000000000000000000000000000000000000000000815260206004820152601060248201527f5061757361626c653a2070617573656400000000000000000000000000000000604482015290519081900360640190fd5b336000908152600c602052604090205460ff16611467576040517f08c379a0000000000000000000000000000000000000000000000000000000008152600401808060200182810382526021815260200180612d8e6021913960400191505060405180910390fd5b33611471816125f9565b156114c7576040517f08c379a0000000000000000000000000000000000000000000000000000000008152600401808060200182810382526025815260200180612f516025913960400191505060405180910390fd5b836114d1816125f9565b15611527576040517f08c379a0000000000000000000000000000000000000000000000000000000008152600401808060200182810382526025815260200180612f516025913960400191505060405180910390fd5b73ffffffffffffffffffffffffffffffffffffffff8516611593576040517f08c379a0000000000000000000000000000000000000000000000000000000008152600401808060200182810382526023815260200180612c306023913960400191505060405180910390fd5b600084116115ec576040517f08c379a0000000000000000000000000000000000000000000000000000000008152600401808060200182810382526029815260200180612cc46029913960400191505060405180910390fd5b336000908152600d602052604090205480851115611655576040517f08c379a000000000000000000000000000000000000000000000000000000000815260040180806020018281038252602e815260200180612ea7602e913960400191505060405180910390fd5b600b5461166290866129ff565b600b556116818661167c8761167683612a7a565b906129ff565b612aa2565b61168b8186612941565b336000818152600d6020908152604091829020939093558051888152905173ffffffffffffffffffffffffffffffffffffffff8a16937fab8530f87dc9b59234c4623bf917212bb2536d647574c8e7e5da92c2ede0c9f8928290030190a360408051868152905173ffffffffffffffffffffffffffffffffffffffff8816916000917fddf252ad1be2c89b69c2b068fc378daa952ba7f163c4a11628f55a4df523b3ef9181900360200190a350600195945050505050565b60015474010000000000000000000000000000000000000000900460ff16156117cd57604080517f08c379a000000000000000000000000000000000000000000000000000000000815260206004820152601060248201527f5061757361626c653a2070617573656400000000000000000000000000000000604482015290519081900360640190fd5b336000908152600c602052604090205460ff16611835576040517f08c379a0000000000000000000000000000000000000000000000000000000008152600401808060200182810382526021815260200180612d8e6021913960400191505060405180910390fd5b3361183f816125f9565b15611895576040517f08c379a0000000000000000000000000000000000000000000000000000000008152600401808060200182810382526025815260200180612f516025913960400191505060405180910390fd5b60006118a033612a7a565b9050600083116118fb576040517f08c379a0000000000000000000000000000000000000000000000000000000008152600401808060200182810382526029815260200180612c076029913960400191505060405180910390fd5b82811015611954576040517f08c379a0000000000000000000000000000000000000000000000000000000008152600401808060200182810382526026815260200180612d686026913960400191505060405180910390fd5b600b546119619084612941565b600b556119723361167c8386612941565b60408051848152905133917fcc16f5dbb4873280815c1ee09dbd06736cffcc184412cf7a71a0fdb75d397ca5919081900360200190a260408051848152905160009133917fddf252ad1be2c89b69c2b068fc378daa952ba7f163c4a11628f55a4df523b3ef9181900360200190a3505050565b60015460009074010000000000000000000000000000000000000000900460ff1615611a7257604080517f08c379a000000000000000000000000000000000000000000000000000000000815260206004820152601060248201527f5061757361626c653a2070617573656400000000000000000000000000000000604482015290519081900360640190fd5b60085473ffffffffffffffffffffffffffffffffffffffff163314611ae2576040517f08c379a0000000000000000000000000000000000000000000000000000000008152600401808060200182810382526029815260200180612d136029913960400191505060405180910390fd5b73ffffffffffffffffffffffffffffffffffffffff83166000818152600c6020908152604080832080547fffffffffffffffffffffffffffffffffffffffffffffffffffffffffffffff00166001179055600d825291829020859055815185815291517f46980fca912ef9bcdbd36877427b6b90e860769f604e89c0e67720cece530d209281900390910190a250600192915050565b60005473ffffffffffffffffffffffffffffffffffffffff163314611bfe57604080517f08c379a000000000000000000000000000000000000000000000000000000000815260206004820181905260248201527f4f776e61626c653a2063616c6c6572206973206e6f7420746865206f776e6572604482015290519081900360640190fd5b73ffffffffffffffffffffffffffffffffffffffff8116611c6a576040517f08c379a0000000000000000000000000000000000000000000000000000000008152600401808060200182810382526028815260200180612bdf6028913960400191505060405180910390fd5b600180547fffffffffffffffffffffffff00000000000000000000000000000000000000001673ffffffffffffffffffffffffffffffffffffffff83811691909117918290556040519116907fb80482a293ca2e013eda8683c9bd7fc8347cfdaeea5ede58cba46df502c2a60490600090a250565b60015474010000000000000000000000000000000000000000900460ff1681565b6000611d0b82612a7a565b92915050565b60015473ffffffffffffffffffffffffffffffffffffffff163314611d81576040517f08c379a0000000000000000000000000000000000000000000000000000000008152600401808060200182810382526022815260200180612ed56022913960400191505060405180910390fd5b600180547fffffffffffffffffffffff00ffffffffffffffffffffffffffffffffffffffff16740100000000000000000000000000000000000000001790556040517f6985a02210a168e66602d3235cb6db0e70f92b3ba4d376a33c0f3d9434bff62590600090a1565b73ffffffffffffffffffffffffffffffffffffffff166000908152600d602052604090205490565b60005473ffffffffffffffffffffffffffffffffffffffff1690565b6005805460408051602060026001851615610100027fffffffffffffffffffffffffffffffffffffffffffffffffffffffffffffffff0190941693909304601f810184900484028201840190925281815292918301828280156109665780601f1061093b57610100808354040283529160200191610966565b60015473ffffffffffffffffffffffffffffffffffffffff1681565b60015460009074010000000000000000000000000000000000000000900460ff1615611f5157604080517f08c379a000000000000000000000000000000000000000000000000000000000815260206004820152601060248201527f5061757361626c653a2070617573656400000000000000000000000000000000604482015290519081900360640190fd5b33611f5b816125f9565b15611fb1576040517f08c379a0000000000000000000000000000000000000000000000000000000008152600401808060200182810382526025815260200180612f516025913960400191505060405180910390fd5b83611fbb816125f9565b15612011576040517f08c379a0000000000000000000000000000000000000000000000000000000008152600401808060200182810382526025815260200180612f516025913960400191505060405180910390fd5b610ac6338686612776565b60005473ffffffffffffffffffffffffffffffffffffffff1633146120a257604080517f08c379a000000000000000000000000000000000000000000000000000000000815260206004820181905260248201527f4f776e61626c653a2063616c6c6572206973206e6f7420746865206f776e6572604482015290519081900360640190fd5b73ffffffffffffffffffffffffffffffffffffffff811661210e576040517f08c379a000000000000000000000000000000000000000000000000000000000815260040180806020018281038252602f815260200180612daf602f913960400191505060405180910390fd5b600880547fffffffffffffffffffffffff00000000000000000000000000000000000000001673ffffffffffffffffffffffffffffffffffffffff83811691909117918290556040519116907fdb66dfa9c6b8f5226fe9aac7e51897ae8ee94ac31dc70bb6c9900b2574b707e690600090a250565b73ffffffffffffffffffffffffffffffffffffffff166000908152600c602052604090205460ff1690565b60005473ffffffffffffffffffffffffffffffffffffffff16331461223457604080517f08c379a000000000000000000000000000000000000000000000000000000000815260206004820181905260248201527f4f776e61626c653a2063616c6c6572206973206e6f7420746865206f776e6572604482015290519081900360640190fd5b73ffffffffffffffffffffffffffffffffffffffff81166122a0576040517f08c379a0000000000000000000000000000000000000000000000000000000008152600401808060200182810382526032815260200180612f1f6032913960400191505060405180910390fd5b600280547fffffffffffffffffffffffff00000000000000000000000000000000000000001673ffffffffffffffffffffffffffffffffffffffff83811691909117918290556040519116907fc67398012c111ce95ecb7429b933096c977380ee6c421175a71a4a4c6c88c06e90600090a250565b60025473ffffffffffffffffffffffffffffffffffffffff1681565b73ffffffffffffffffffffffffffffffffffffffff9182166000908152600a6020908152604080832093909416825291909152205490565b6007805460408051602060026001851615610100027fffffffffffffffffffffffffffffffffffffffffffffffffffffffffffffffff0190941693909304601f810184900484028201840190925281815292918301828280156109665780601f1061093b57610100808354040283529160200191610966565b60005473ffffffffffffffffffffffffffffffffffffffff16331461246857604080517f08c379a000000000000000000000000000000000000000000000000000000000815260206004820181905260248201527f4f776e61626c653a2063616c6c6572206973206e6f7420746865206f776e6572604482015290519081900360640190fd5b73ffffffffffffffffffffffffffffffffffffffff81166124d4576040517f08c379a0000000000000000000000000000000000000000000000000000000008152600401808060200182810382526026815260200180612c536026913960400191505060405180910390fd5b6000546040805173ffffffffffffffffffffffffffffffffffffffff9283168152918316602083015280517f8be0079c531659141344cd1fd0a4f28419497f9722a3daafe3b4186f6b6457e09281900390910190a1612532816129b8565b50565b60025473ffffffffffffffffffffffffffffffffffffffff1633146125a5576040517f08c379a000000000000000000000000000000000000000000000000000000000815260040180806020018281038252602c815260200180612d3c602c913960400191505060405180910390fd5b6125ae81612acb565b60405173ffffffffffffffffffffffffffffffffffffffff8216907fffa4e6181777692565cf28528fc88fd1516ea86b56da075235fa575af6a4b85590600090a250565b6000611d0b825b73ffffffffffffffffffffffffffffffffffffffff1660009081526003602052604090205460ff1690565b73ffffffffffffffffffffffffffffffffffffffff8316612690576040517f08c379a0000000000000000000000000000000000000000000000000000000008152600401808060200182810382526024815260200180612e836024913960400191505060405180910390fd5b73ffffffffffffffffffffffffffffffffffffffff82166126fc576040517f08c379a0000000000000000000000000000000000000000000000000000000008152600401808060200182810382526022815260200180612c796022913960400191505060405180910390fd5b73ffffffffffffffffffffffffffffffffffffffff8084166000818152600a6020908152604080832094871680845294825291829020859055815185815291517f8c5be1e5ebec7d5bd14f71427d1e84f3dd0314c0f7b2291e5b200ac8c7c3b9259281900390910190a3505050565b612532816000612ad2565b73ffffffffffffffffffffffffffffffffffffffff83166127e2576040517f08c379a0000000000000000000000000000000000000000000000000000000008152600401808060200182810382526025815260200180612e5e6025913960400191505060405180910390fd5b73ffffffffffffffffffffffffffffffffffffffff821661284e576040517f08c379a0000000000000000000000000000000000000000000000000000000008152600401808060200182810382526023815260200180612bbc6023913960400191505060405180910390fd5b61285783612a7a565b8111156128af576040517f08c379a0000000000000000000000000000000000000000000000000000000008152600401808060200182810382526026815260200180612ced6026913960400191505060405180910390fd5b6128c68361167c836128c087612a7a565b90612941565b6128d78261167c8361167686612a7a565b8173ffffffffffffffffffffffffffffffffffffffff168373ffffffffffffffffffffffffffffffffffffffff167fddf252ad1be2c89b69c2b068fc378daa952ba7f163c4a11628f55a4df523b3ef836040518082815260200191505060405180910390a3505050565b6000828211156129b257604080517f08c379a000000000000000000000000000000000000000000000000000000000815260206004820152601e60248201527f536166654d6174683a207375627472616374696f6e206f766572666c6f770000604482015290519081900360640190fd5b50900390565b600080547fffffffffffffffffffffffff00000000000000000000000000000000000000001673ffffffffffffffffffffffffffffffffffffffff92909216919091179055565b600082820183811015612a7357604080517f08c379a000000000000000000000000000000000000000000000000000000000815260206004820152601b60248201527f536166654d6174683a206164646974696f6e206f766572666c6f770000000000604482015290519081900360640190fd5b9392505050565b73ffffffffffffffffffffffffffffffffffffffff1660009081526009602052604090205490565b73ffffffffffffffffffffffffffffffffffffffff909116600090815260096020526040902055565b6125328160015b73ffffffffffffffffffffffffffffffffffffffff91909116600090815260036020526040902080547fffffffffffffffffffffffffffffffffffffffffffffffffffffffffffffff0016911515919091179055565b828054600181600116156101000203166002900490600052602060002090601f016020900481019282601f10612b6957805160ff1916838001178555612b96565b82800160010185558215612b96579182015b82811115612b96578251825591602001919060010190612b7b565b50612ba2929150612ba6565b5090565b5b80821115612ba25760008155600101612ba756fe45524332303a207472616e7366657220746f20746865207a65726f20616464726573735061757361626c653a206e65772070617573657220697320746865207a65726f206164647265737346696174546f6b656e3a206275726e20616d6f756e74206e6f742067726561746572207468616e203046696174546f6b656e3a206d696e7420746f20746865207a65726f20616464726573734f776e61626c653a206e6577206f776e657220697320746865207a65726f206164647265737345524332303a20617070726f766520746f20746865207a65726f206164647265737346696174546f6b656e3a206e65772070617573657220697320746865207a65726f206164647265737346696174546f6b656e3a206d696e7420616d6f756e74206e6f742067726561746572207468616e203045524332303a207472616e7366657220616d6f756e7420657863656564732062616c616e636546696174546f6b656e3a2063616c6c6572206973206e6f7420746865206d61737465724d696e746572426c61636b6c69737461626c653a2063616c6c6572206973206e6f742074686520626c61636b6c697374657246696174546f6b656e3a206275726e20616d6f756e7420657863656564732062616c616e636546696174546f6b656e3a2063616c6c6572206973206e6f742061206d696e74657246696174546f6b656e3a206e6577206d61737465724d696e74657220697320746865207a65726f206164647265737345524332303a207472616e7366657220616d6f756e74206578636565647320616c6c6f77616e636546696174546f6b656e3a206e657720626c61636b6c697374657220697320746865207a65726f206164647265737346696174546f6b656e3a20636f6e747261637420697320616c726561647920696e697469616c697a656445524332303a207472616e736665722066726f6d20746865207a65726f206164647265737345524332303a20617070726f76652066726f6d20746865207a65726f206164647265737346696174546f6b656e3a206d696e7420616d6f756e742065786365656473206d696e746572416c6c6f77616e63655061757361626c653a2063616c6c6572206973206e6f74207468652070617573657246696174546f6b656e3a206e6577206f776e657220697320746865207a65726f2061646472657373426c61636b6c69737461626c653a206e657720626c61636b6c697374657220697320746865207a65726f2061646472657373426c61636b6c69737461626c653a206163636f756e7420697320626c61636b6c6973746564a26469706673582212204bcfc53cce7cc3c5dc8a0da79762517162324e62eaa93a6813b1a41b53be89ea64736f6c634300060c0033",
  "immutableReferences": {},
  "source": "/**\n * SPDX-License-Identifier: Apache-2.0\n *\n * Copyright (c) 2023, Circle Internet Financial, LLC.\n *\n * Licensed under the Apache License, Version 2.0 (the \"License\");\n * you may not use this file except in compliance with the License.\n * You may obtain a copy of the License at\n *\n * http://www.apache.org/licenses/LICENSE-2.0\n *\n * Unless required by applicable law or agreed to in writing, software\n * distributed under the License is distributed on an \"AS IS\" BASIS,\n * WITHOUT WARRANTIES OR CONDITIONS OF ANY KIND, either express or implied.\n * See the License for the specific language governing permissions and\n * limitations under the License.\n */\n\npragma solidity 0.6.12;\n\nimport { SafeMath } from \"@openzeppelin/contracts/math/SafeMath.sol\";\nimport { AbstractFiatTokenV1 } from \"./AbstractFiatTokenV1.sol\";\nimport { Ownable } from \"./Ownable.sol\";\nimport { Pausable } from \"./Pausable.sol\";\nimport { Blacklistable } from \"./Blacklistable.sol\";\n\n/**\n * @title FiatToken\n * @dev ERC20 Token backed by fiat reserves\n */\ncontract FiatTokenV1 is AbstractFiatTokenV1, Ownable, Pausable, Blacklistable {\n    using SafeMath for uint256;\n\n    string public name;\n    string public symbol;\n    uint8 public decimals;\n    string public currency;\n    address public masterMinter;\n    bool internal initialized;\n\n    /// @dev A mapping that stores the balance and blacklist states for a given address.\n    /// The first bit defines whether the address is blacklisted (1 if blacklisted, 0 otherwise).\n    /// The last 255 bits define the balance for the address.\n    mapping(address => uint256) internal balanceAndBlacklistStates;\n    mapping(address => mapping(address => uint256)) internal allowed;\n    uint256 internal totalSupply_ = 0;\n    mapping(address => bool) internal minters;\n    mapping(address => uint256) internal minterAllowed;\n\n    event Mint(address indexed minter, address indexed to, uint256 amount);\n    event Burn(address indexed burner, uint256 amount);\n    event MinterConfigured(address indexed minter, uint256 minterAllowedAmount);\n    event MinterRemoved(address indexed oldMinter);\n    event MasterMinterChanged(address indexed newMasterMinter);\n\n    /**\n     * @notice Initializes the fiat token contract.\n     * @param tokenName       The name of the fiat token.\n     * @param tokenSymbol     The symbol of the fiat token.\n     * @param tokenCurrency   The fiat currency that the token represents.\n     * @param tokenDecimals   The number of decimals that the token uses.\n     * @param newMasterMinter The masterMinter address for the fiat token.\n     * @param newPauser       The pauser address for the fiat token.\n     * @param newBlacklister  The blacklister address for the fiat token.\n     * @param newOwner        The owner of the fiat token.\n     */\n    function initialize(\n        string memory tokenName,\n        string memory tokenSymbol,\n        string memory tokenCurrency,\n        uint8 tokenDecimals,\n        address newMasterMinter,\n        address newPauser,\n        address newBlacklister,\n        address newOwner\n    ) public {\n        require(!initialized, \"FiatToken: contract is already initialized\");\n        require(\n            newMasterMinter != address(0),\n            \"FiatToken: new masterMinter is the zero address\"\n        );\n        require(\n            newPauser != address(0),\n            \"FiatToken: new pauser is the zero address\"\n        );\n        require(\n            newBlacklister != address(0),\n            \"FiatToken: new blacklister is the zero address\"\n        );\n        require(\n            newOwner != address(0),\n            \"FiatToken: new owner is the zero address\"\n        );\n\n        name = tokenName;\n        symbol = tokenSymbol;\n        currency = tokenCurrency;\n        decimals = tokenDecimals;\n        masterMinter = newMasterMinter;\n        pauser = newPauser;\n        blacklister = newBlacklister;\n        setOwner(newOwner);\n        initialized = true;\n    }\n\n    /**\n     * @dev Throws if called by any account other than a minter.\n     */\n    modifier onlyMinters() {\n        require(minters[msg.sender], \"FiatToken: caller is not a minter\");\n        _;\n    }\n\n    /**\n     * @notice Mints fiat tokens to an address.\n     * @param _to The address that will receive the minted tokens.\n     * @param _amount The amount of tokens to mint. Must be less than or equal\n     * to the minterAllowance of the caller.\n     * @return True if the operation was successful.\n     */\n    function mint(address _to, uint256 _amount)\n        external\n        whenNotPaused\n        onlyMinters\n        notBlacklisted(msg.sender)\n        notBlacklisted(_to)\n        returns (bool)\n    {\n        require(_to != address(0), \"FiatToken: mint to the zero address\");\n        require(_amount > 0, \"FiatToken: mint amount not greater than 0\");\n\n        uint256 mintingAllowedAmount = minterAllowed[msg.sender];\n        require(\n            _amount <= mintingAllowedAmount,\n            \"FiatToken: mint amount exceeds minterAllowance\"\n        );\n\n        totalSupply_ = totalSupply_.add(_amount);\n        _setBalance(_to, _balanceOf(_to).add(_amount));\n        minterAllowed[msg.sender] = mintingAllowedAmount.sub(_amount);\n        emit Mint(msg.sender, _to, _amount);\n        emit Transfer(address(0), _to, _amount);\n        return true;\n    }\n\n    /**\n     * @dev Throws if called by any account other than the masterMinter\n     */\n    modifier onlyMasterMinter() {\n        require(\n            msg.sender == masterMinter,\n            \"FiatToken: caller is not the masterMinter\"\n        );\n        _;\n    }\n\n    /**\n     * @notice Gets the minter allowance for an account.\n     * @param minter The address to check.\n     * @return The remaining minter allowance for the account.\n     */\n    function minterAllowance(address minter) external view returns (uint256) {\n        return minterAllowed[minter];\n    }\n\n    /**\n     * @notice Checks if an account is a minter.\n     * @param account The address to check.\n     * @return True if the account is a minter, false if the account is not a minter.\n     */\n    function isMinter(address account) external view returns (bool) {\n        return minters[account];\n    }\n\n    /**\n     * @notice Gets the remaining amount of fiat tokens a spender is allowed to transfer on\n     * behalf of the token owner.\n     * @param owner   The token owner's address.\n     * @param spender The spender's address.\n     * @return The remaining allowance.\n     */\n    function allowance(address owner, address spender)\n        external\n        override\n        view\n        returns (uint256)\n    {\n        return allowed[owner][spender];\n    }\n\n    /**\n     * @notice Gets the totalSupply of the fiat token.\n     * @return The totalSupply of the fiat token.\n     */\n    function totalSupply() external override view returns (uint256) {\n        return totalSupply_;\n    }\n\n    /**\n     * @notice Gets the fiat token balance of an account.\n     * @param account  The address to check.\n     * @return balance The fiat token balance of the account.\n     */\n    function balanceOf(address account)\n        external\n        override\n        view\n        returns (uint256)\n    {\n        return _balanceOf(account);\n    }\n\n    /**\n     * @notice Sets a fiat token allowance for a spender to spend on behalf of the caller.\n     * @param spender The spender's address.\n     * @param value   The allowance amount.\n     * @return True if the operation was successful.\n     */\n    function approve(address spender, uint256 value)\n        external\n        virtual\n        override\n        whenNotPaused\n        notBlacklisted(msg.sender)\n        notBlacklisted(spender)\n        returns (bool)\n    {\n        _approve(msg.sender, spender, value);\n        return true;\n    }\n\n    /**\n     * @dev Internal function to set allowance.\n     * @param owner     Token owner's address.\n     * @param spender   Spender's address.\n     * @param value     Allowance amount.\n     */\n    function _approve(\n        address owner,\n        address spender,\n        uint256 value\n    ) internal override {\n        require(owner != address(0), \"ERC20: approve from the zero address\");\n        require(spender != address(0), \"ERC20: approve to the zero address\");\n        allowed[owner][spender] = value;\n        emit Approval(owner, spender, value);\n    }\n\n    /**\n     * @notice Transfers tokens from an address to another by spending the caller's allowance.\n     * @dev The caller must have some fiat token allowance on the payer's tokens.\n     * @param from  Payer's address.\n     * @param to    Payee's address.\n     * @param value Transfer amount.\n     * @return True if the operation was successful.\n     */\n    function transferFrom(\n        address from,\n        address to,\n        uint256 value\n    )\n        external\n        override\n        whenNotPaused\n        notBlacklisted(msg.sender)\n        notBlacklisted(from)\n        notBlacklisted(to)\n        returns (bool)\n    {\n        require(\n            value <= allowed[from][msg.sender],\n            \"ERC20: transfer amount exceeds allowance\"\n        );\n        _transfer(from, to, value);\n        allowed[from][msg.sender] = allowed[from][msg.sender].sub(value);\n        return true;\n    }\n\n    /**\n     * @notice Transfers tokens from the caller.\n     * @param to    Payee's address.\n     * @param value Transfer amount.\n     * @return True if the operation was successful.\n     */\n    function transfer(address to, uint256 value)\n        external\n        override\n        whenNotPaused\n        notBlacklisted(msg.sender)\n        notBlacklisted(to)\n        returns (bool)\n    {\n        _transfer(msg.sender, to, value);\n        return true;\n    }\n\n    /**\n     * @dev Internal function to process transfers.\n     * @param from  Payer's address.\n     * @param to    Payee's address.\n     * @param value Transfer amount.\n     */\n    function _transfer(\n        address from,\n        address to,\n        uint256 value\n    ) internal override {\n        require(from != address(0), \"ERC20: transfer from the zero address\");\n        require(to != address(0), \"ERC20: transfer to the zero address\");\n        require(\n            value <= _balanceOf(from),\n            \"ERC20: transfer amount exceeds balance\"\n        );\n\n        _setBalance(from, _balanceOf(from).sub(value));\n        _setBalance(to, _balanceOf(to).add(value));\n        emit Transfer(from, to, value);\n    }\n\n    /**\n     * @notice Adds or updates a new minter with a mint allowance.\n     * @param minter The address of the minter.\n     * @param minterAllowedAmount The minting amount allowed for the minter.\n     * @return True if the operation was successful.\n     */\n    function configureMinter(address minter, uint256 minterAllowedAmount)\n        external\n        whenNotPaused\n        onlyMasterMinter\n        returns (bool)\n    {\n        minters[minter] = true;\n        minterAllowed[minter] = minterAllowedAmount;\n        emit MinterConfigured(minter, minterAllowedAmount);\n        return true;\n    }\n\n    /**\n     * @notice Removes a minter.\n     * @param minter The address of the minter to remove.\n     * @return True if the operation was successful.\n     */\n    function removeMinter(address minter)\n        external\n        onlyMasterMinter\n        returns (bool)\n    {\n        minters[minter] = false;\n        minterAllowed[minter] = 0;\n        emit MinterRemoved(minter);\n        return true;\n    }\n\n    /**\n     * @notice Allows a minter to burn some of its own tokens.\n     * @dev The caller must be a minter, must not be blacklisted, and the amount to burn\n     * should be less than or equal to the account's balance.\n     * @param _amount the amount of tokens to be burned.\n     */\n    function burn(uint256 _amount)\n        external\n        whenNotPaused\n        onlyMinters\n        notBlacklisted(msg.sender)\n    {\n        uint256 balance = _balanceOf(msg.sender);\n        require(_amount > 0, \"FiatToken: burn amount not greater than 0\");\n        require(balance >= _amount, \"FiatToken: burn amount exceeds balance\");\n\n        totalSupply_ = totalSupply_.sub(_amount);\n        _setBalance(msg.sender, balance.sub(_amount));\n        emit Burn(msg.sender, _amount);\n        emit Transfer(msg.sender, address(0), _amount);\n    }\n\n    /**\n     * @notice Updates the master minter address.\n     * @param _newMasterMinter The address of the new master minter.\n     */\n    function updateMasterMinter(address _newMasterMinter) external onlyOwner {\n        require(\n            _newMasterMinter != address(0),\n            \"FiatToken: new masterMinter is the zero address\"\n        );\n        masterMinter = _newMasterMinter;\n        emit MasterMinterChanged(masterMinter);\n    }\n\n    /**\n     * @inheritdoc Blacklistable\n     */\n    function _blacklist(address _account) internal override {\n        _setBlacklistState(_account, true);\n    }\n\n    /**\n     * @inheritdoc Blacklistable\n     */\n    function _unBlacklist(address _account) internal override {\n        _setBlacklistState(_account, false);\n    }\n\n    /**\n     * @dev Helper method that sets the blacklist state of an account.\n     * @param _account         The address of the account.\n     * @param _shouldBlacklist True if the account should be blacklisted, false if the account should be unblacklisted.\n     */\n    function _setBlacklistState(address _account, bool _shouldBlacklist)\n        internal\n        virtual\n    {\n        _deprecatedBlacklisted[_account] = _shouldBlacklist;\n    }\n\n    /**\n     * @dev Helper method that sets the balance of an account.\n     * @param _account The address of the account.\n     * @param _balance The new fiat token balance of the account.\n     */\n    function _setBalance(address _account, uint256 _balance) internal virtual {\n        balanceAndBlacklistStates[_account] = _balance;\n    }\n\n    /**\n     * @inheritdoc Blacklistable\n     */\n    function _isBlacklisted(address _account)\n        internal\n        virtual\n        override\n        view\n        returns (bool)\n    {\n        return _deprecatedBlacklisted[_account];\n    }\n\n    /**\n     * @dev Helper method to obtain the balance of an account.\n     * @param _account  The address of the account.\n     * @return          The fiat token balance of the account.\n     */\n    function _balanceOf(address _account)\n        internal\n        virtual\n        view\n        returns (uint256)\n    {\n        return balanceAndBlacklistStates[_account];\n    }\n}\n",
  "sourcePath": "/Users/huangxuchen/contracts/stablecoin-evm/contracts/v1/FiatTokenV1.sol",
  "compiler": {
    "name": "solc",
    "version": "0.6.12+commit.27d51765.Emscripten.clang"
  },
  "schemaVersion": "3.3.1",
  "updatedAt": "2023-12-01T15:10:36.401Z",
  "networkType": "ethereum",
  "devdoc": {
    "details": "ERC20 Token backed by fiat reserves",
    "kind": "dev",
    "methods": {
      "allowance(address,address)": {
        "params": {
          "owner": "The token owner's address.",
          "spender": "The spender's address."
        },
        "returns": {
          "_0": "The remaining allowance."
        }
      },
      "approve(address,uint256)": {
        "params": {
          "spender": "The spender's address.",
          "value": "The allowance amount."
        },
        "returns": {
          "_0": "True if the operation was successful."
        }
      },
      "balanceOf(address)": {
        "params": {
          "account": "The address to check."
        },
        "returns": {
          "_0": "balance The fiat token balance of the account."
        }
      },
      "blacklist(address)": {
        "params": {
          "_account": "The address to blacklist."
        }
      },
      "burn(uint256)": {
        "details": "The caller must be a minter, must not be blacklisted, and the amount to burn should be less than or equal to the account's balance.",
        "params": {
          "_amount": "the amount of tokens to be burned."
        }
      },
      "configureMinter(address,uint256)": {
        "params": {
          "minter": "The address of the minter.",
          "minterAllowedAmount": "The minting amount allowed for the minter."
        },
        "returns": {
          "_0": "True if the operation was successful."
        }
      },
      "initialize(string,string,string,uint8,address,address,address,address)": {
        "params": {
          "newBlacklister": "The blacklister address for the fiat token.",
          "newMasterMinter": "The masterMinter address for the fiat token.",
          "newOwner": "The owner of the fiat token.",
          "newPauser": "The pauser address for the fiat token.",
          "tokenCurrency": "The fiat currency that the token represents.",
          "tokenDecimals": "The number of decimals that the token uses.",
          "tokenName": "The name of the fiat token.",
          "tokenSymbol": "The symbol of the fiat token."
        }
      },
      "isBlacklisted(address)": {
        "params": {
          "_account": "The address to check."
        },
        "returns": {
          "_0": "True if the account is blacklisted, false if the account is not blacklisted."
        }
      },
      "isMinter(address)": {
        "params": {
          "account": "The address to check."
        },
        "returns": {
          "_0": "True if the account is a minter, false if the account is not a minter."
        }
      },
      "mint(address,uint256)": {
        "params": {
          "_amount": "The amount of tokens to mint. Must be less than or equal to the minterAllowance of the caller.",
          "_to": "The address that will receive the minted tokens."
        },
        "returns": {
          "_0": "True if the operation was successful."
        }
      },
      "minterAllowance(address)": {
        "params": {
          "minter": "The address to check."
        },
        "returns": {
          "_0": "The remaining minter allowance for the account."
        }
      },
      "owner()": {
        "details": "Tells the address of the owner",
        "returns": {
          "_0": "the address of the owner"
        }
      },
      "pause()": {
        "details": "called by the owner to pause, triggers stopped state"
      },
      "removeMinter(address)": {
        "params": {
          "minter": "The address of the minter to remove."
        },
        "returns": {
          "_0": "True if the operation was successful."
        }
      },
      "totalSupply()": {
        "returns": {
          "_0": "The totalSupply of the fiat token."
        }
      },
      "transfer(address,uint256)": {
        "params": {
          "to": "Payee's address.",
          "value": "Transfer amount."
        },
        "returns": {
          "_0": "True if the operation was successful."
        }
      },
      "transferFrom(address,address,uint256)": {
        "details": "The caller must have some fiat token allowance on the payer's tokens.",
        "params": {
          "from": "Payer's address.",
          "to": "Payee's address.",
          "value": "Transfer amount."
        },
        "returns": {
          "_0": "True if the operation was successful."
        }
      },
      "transferOwnership(address)": {
        "details": "Allows the current owner to transfer control of the contract to a newOwner.",
        "params": {
          "newOwner": "The address to transfer ownership to."
        }
      },
      "unBlacklist(address)": {
        "params": {
          "_account": "The address to remove from the blacklist."
        }
      },
      "unpause()": {
        "details": "called by the owner to unpause, returns to normal state"
      },
      "updateBlacklister(address)": {
        "params": {
          "_newBlacklister": "The address of the new blacklister."
        }
      },
      "updateMasterMinter(address)": {
        "params": {
          "_newMasterMinter": "The address of the new master minter."
        }
      },
      "updatePauser(address)": {
        "params": {
          "_newPauser": "The address of the new pauser."
        }
      }
    },
    "stateVariables": {
      "balanceAndBlacklistStates": {
        "details": "A mapping that stores the balance and blacklist states for a given address. The first bit defines whether the address is blacklisted (1 if blacklisted, 0 otherwise). The last 255 bits define the balance for the address."
      }
    },
    "title": "FiatToken",
    "version": 1
  },
  "userdoc": {
    "kind": "user",
    "methods": {
      "allowance(address,address)": {
        "notice": "Gets the remaining amount of fiat tokens a spender is allowed to transfer on behalf of the token owner."
      },
      "approve(address,uint256)": {
        "notice": "Sets a fiat token allowance for a spender to spend on behalf of the caller."
      },
      "balanceOf(address)": {
        "notice": "Gets the fiat token balance of an account."
      },
      "blacklist(address)": {
        "notice": "Adds account to blacklist."
      },
      "burn(uint256)": {
        "notice": "Allows a minter to burn some of its own tokens."
      },
      "configureMinter(address,uint256)": {
        "notice": "Adds or updates a new minter with a mint allowance."
      },
      "initialize(string,string,string,uint8,address,address,address,address)": {
        "notice": "Initializes the fiat token contract."
      },
      "isBlacklisted(address)": {
        "notice": "Checks if account is blacklisted."
      },
      "isMinter(address)": {
        "notice": "Checks if an account is a minter."
      },
      "mint(address,uint256)": {
        "notice": "Mints fiat tokens to an address."
      },
      "minterAllowance(address)": {
        "notice": "Gets the minter allowance for an account."
      },
      "removeMinter(address)": {
        "notice": "Removes a minter."
      },
      "totalSupply()": {
        "notice": "Gets the totalSupply of the fiat token."
      },
      "transfer(address,uint256)": {
        "notice": "Transfers tokens from the caller."
      },
      "transferFrom(address,address,uint256)": {
        "notice": "Transfers tokens from an address to another by spending the caller's allowance."
      },
      "unBlacklist(address)": {
        "notice": "Removes account from blacklist."
      },
      "updateBlacklister(address)": {
        "notice": "Updates the blacklister address."
      },
      "updateMasterMinter(address)": {
        "notice": "Updates the master minter address."
      },
      "updatePauser(address)": {
        "notice": "Updates the pauser address."
      }
    },
    "version": 1
  }
}